{
  "transactions": [
    {
      "hash": "0x08de74826a11cbdb8162f89c300c781ccaeb7787958cbe7d30c3bb4edf6f1b6d",
      "transactionType": "CREATE",
      "contractName": "MetaBoard",
      "contractAddress": "0x959922bE3CAee4b8Cd9a407cc3ac1C251C2007B1",
      "function": null,
      "arguments": null,
      "transaction": {
        "type": "0x02",
        "from": "0xf39fd6e51aad88f6f4ce6ab8827279cfffb92266",
        "gas": "0x424cf",
        "value": "0x0",
        "data": "0x608060405234801561001057600080fd5b506102d2806100206000396000f3fe608060405234801561001057600080fd5b506004361061002b5760003560e01c8063d284820b14610030575b600080fd5b61004361003e366004610143565b610045565b005b61008482828080601f0160208091040260200160405190810160405280939291908181526020018383808284376000920191909152506100c692505050565b7fbea766d03fa1efd3f81cc8634d08320bc62bb0ed9234ac59bbaafa5893fb6b13338484846040516100b994939291906101bf565b60405180910390a1505050565b6100cf81610113565b61011057806040517f644cc2580000000000000000000000000000000000000000000000000000000081526004016101079190610230565b60405180910390fd5b50565b600060088251101561012757506000919050565b506008015167ffffffffffffffff1667ff0a89c674ee78741490565b60008060006040848603121561015857600080fd5b83359250602084013567ffffffffffffffff8082111561017757600080fd5b818601915086601f83011261018b57600080fd5b81358181111561019a57600080fd5b8760208285010111156101ac57600080fd5b6020830194508093505050509250925092565b73ffffffffffffffffffffffffffffffffffffffff8516815283602082015260606040820152816060820152818360808301376000818301608090810191909152601f9092017fffffffffffffffffffffffffffffffffffffffffffffffffffffffffffffffe01601019392505050565b600060208083528351808285015260005b8181101561025d57858101830151858201604001528201610241565b5060006040828601015260407fffffffffffffffffffffffffffffffffffffffffffffffffffffffffffffffe0601f830116850101925050509291505056fea2646970667358221220fbba711ba387eb433fda4804ab202a6b0c86146891fbccdd1bca32783dd76b1664736f6c63430008120033",
        "nonce": "0x10",
        "accessList": []
      },
      "additionalContracts": [],
      "isFixedGasLimit": false
    },
    {
      "hash": "0xc79abbd5e57e32c3799d1f3271bb69140eab0cfd29deb91d8c91f16b054f289d",
      "transactionType": "CALL",
      "contractName": "MetaBoard",
      "contractAddress": "0x959922bE3CAee4b8Cd9a407cc3ac1C251C2007B1",
      "function": "emitMeta(uint256,bytes)",
      "arguments": [
        "1",
        "0xff0a89c674ee7874a50058d08d91c10e82300c86df65672e9ae8c177c083315e8c31454a32031dd93ae34278778b828006f1b6a6fffeff6b7bac94a6d2b3539be793d112e4fb50a2daa824303a152982a2293d15c820350fdbf5e92dd81ade81a658548745af436b8d557554292043a1305ed232c81d46e3f014ef980e5a231848538b6e80e3503ed83ea6133441335e5eeae56a3df0f2c9152fdc9b758a3fcc3eb634b3a3afe5dc90b88d99bac314ee798a778eeffc03100bcdf16b06e3b94592b663608c3d43a273cd419472cc12022439f67699a70b6b43e2f800011bffe5ffb4a3ff2cde02706170706c69636174696f6e2f6a736f6e03676465666c6174650462656e"
      ],
      "transaction": {
        "type": "0x02",
        "from": "0xf39fd6e51aad88f6f4ce6ab8827279cfffb92266",
        "to": "0x959922be3caee4b8cd9a407cc3ac1c251c2007b1",
        "gas": "0xa686",
        "value": "0x0",
        "data": "0xd284820b000000000000000000000000000000000000000000000000000000000000000100000000000000000000000000000000000000000000000000000000000000400000000000000000000000000000000000000000000000000000000000000105ff0a89c674ee7874a50058d08d91c10e82300c86df65672e9ae8c177c083315e8c31454a32031dd93ae34278778b828006f1b6a6fffeff6b7bac94a6d2b3539be793d112e4fb50a2daa824303a152982a2293d15c820350fdbf5e92dd81ade81a658548745af436b8d557554292043a1305ed232c81d46e3f014ef980e5a231848538b6e80e3503ed83ea6133441335e5eeae56a3df0f2c9152fdc9b758a3fcc3eb634b3a3afe5dc90b88d99bac314ee798a778eeffc03100bcdf16b06e3b94592b663608c3d43a273cd419472cc12022439f67699a70b6b43e2f800011bffe5ffb4a3ff2cde02706170706c69636174696f6e2f6a736f6e03676465666c6174650462656e000000000000000000000000000000000000000000000000000000",
        "nonce": "0x11",
        "accessList": []
      },
      "additionalContracts": [],
      "isFixedGasLimit": false
    }
  ],
  "receipts": [
    {
      "transactionHash": "0x08de74826a11cbdb8162f89c300c781ccaeb7787958cbe7d30c3bb4edf6f1b6d",
      "transactionIndex": "0x0",
      "blockHash": "0xab3eb29810f9858ae563df4e836f7fa4bbf43116d55ec55103893845a34f7187",
      "blockNumber": "0x11",
      "from": "0xf39Fd6e51aad88F6F4ce6aB8827279cffFb92266",
      "to": null,
      "cumulativeGasUsed": "0x33002",
      "gasUsed": "0x33002",
      "contractAddress": "0x959922bE3CAee4b8Cd9a407cc3ac1C251C2007B1",
      "logs": [],
      "status": "0x1",
      "logsBloom": "0x00000000000000000000000000000000000000000000000000000000000000000000000000000000000000000000000000000000000000000000000000000000000000000000000000000000000000000000000000000000000000000000000000000000000000000000000000000000000000000000000000000000000000000000000000000000000000000000000000000000000000000000000000000000000000000000000000000000000000000000000000000000000000000000000000000000000000000000000000000000000000000000000000000000000000000000000000000000000000000000000000000000000000000000000000000000",
      "type": "0x2",
      "effectiveGasPrice": "0xb90aedcf"
    },
    {
      "transactionHash": "0xc79abbd5e57e32c3799d1f3271bb69140eab0cfd29deb91d8c91f16b054f289d",
      "transactionIndex": "0x0",
      "blockHash": "0xfc7609bc4d9197ead159b038c4fe511fda783471300a74eeb54a2e6a14e6726c",
      "blockNumber": "0x12",
      "from": "0xf39Fd6e51aad88F6F4ce6aB8827279cffFb92266",
      "to": "0x959922bE3CAee4b8Cd9a407cc3ac1C251C2007B1",
      "cumulativeGasUsed": "0x7890",
      "gasUsed": "0x7890",
      "contractAddress": null,
      "logs": [
        {
          "address": "0x959922bE3CAee4b8Cd9a407cc3ac1C251C2007B1",
          "topics": [
            "0xbea766d03fa1efd3f81cc8634d08320bc62bb0ed9234ac59bbaafa5893fb6b13"
          ],
          "data": "0x000000000000000000000000f39fd6e51aad88f6f4ce6ab8827279cfffb92266000000000000000000000000000000000000000000000000000000000000000100000000000000000000000000000000000000000000000000000000000000600000000000000000000000000000000000000000000000000000000000000105ff0a89c674ee7874a50058d08d91c10e82300c86df65672e9ae8c177c083315e8c31454a32031dd93ae34278778b828006f1b6a6fffeff6b7bac94a6d2b3539be793d112e4fb50a2daa824303a152982a2293d15c820350fdbf5e92dd81ade81a658548745af436b8d557554292043a1305ed232c81d46e3f014ef980e5a231848538b6e80e3503ed83ea6133441335e5eeae56a3df0f2c9152fdc9b758a3fcc3eb634b3a3afe5dc90b88d99bac314ee798a778eeffc03100bcdf16b06e3b94592b663608c3d43a273cd419472cc12022439f67699a70b6b43e2f800011bffe5ffb4a3ff2cde02706170706c69636174696f6e2f6a736f6e03676465666c6174650462656e000000000000000000000000000000000000000000000000000000",
          "blockHash": "0xfc7609bc4d9197ead159b038c4fe511fda783471300a74eeb54a2e6a14e6726c",
          "blockNumber": "0x12",
          "transactionHash": "0xc79abbd5e57e32c3799d1f3271bb69140eab0cfd29deb91d8c91f16b054f289d",
          "transactionIndex": "0x0",
          "logIndex": "0x0",
          "removed": false
        }
      ],
      "status": "0x1",
      "logsBloom": "0x00000000000000000000000000000000000000000000000000000000000000000000000000000000000000000000000000000000000000000000000000200000000000000000000000000000000000000000000000000000000000000000000000000000000000000020000000000000000000400000000000000000000000000000000000000000000000000000000000000000000000000000000000000000000000000000000000200000000000000000000000000000000000000000000001000000000000000000000000000000000000000000000000000000000000000000000000000000010000000000000000000000000000000000000000000000",
      "type": "0x2",
      "effectiveGasPrice": "0xb8466273"
    }
  ],
  "libraries": [],
  "pending": [],
  "returns": {},
  "timestamp": 1688298628,
  "chain": 31337,
  "multi": false,
  "commit": "1297b9f"
}