{
  "transactions": [
    {
      "hash": "0xdb78fbc46d4d2fec7d964bce215dd52c760b83917a0f95cddcb782d5328d5527",
      "transactionType": "CREATE",
      "contractName": "MetaBoard",
      "contractAddress": "0x1291Be112d480055DaFd8a610b7d1e203891C274",
      "function": null,
      "arguments": null,
      "transaction": {
        "type": "0x02",
        "from": "0xf39fd6e51aad88f6f4ce6ab8827279cfffb92266",
        "gas": "0x424cf",
        "value": "0x0",
        "data": "0x608060405234801561001057600080fd5b506102d2806100206000396000f3fe608060405234801561001057600080fd5b506004361061002b5760003560e01c8063d284820b14610030575b600080fd5b61004361003e366004610143565b610045565b005b61008482828080601f0160208091040260200160405190810160405280939291908181526020018383808284376000920191909152506100c692505050565b7fbea766d03fa1efd3f81cc8634d08320bc62bb0ed9234ac59bbaafa5893fb6b13338484846040516100b994939291906101bf565b60405180910390a1505050565b6100cf81610113565b61011057806040517f644cc2580000000000000000000000000000000000000000000000000000000081526004016101079190610230565b60405180910390fd5b50565b600060088251101561012757506000919050565b506008015167ffffffffffffffff1667ff0a89c674ee78741490565b60008060006040848603121561015857600080fd5b83359250602084013567ffffffffffffffff8082111561017757600080fd5b818601915086601f83011261018b57600080fd5b81358181111561019a57600080fd5b8760208285010111156101ac57600080fd5b6020830194508093505050509250925092565b73ffffffffffffffffffffffffffffffffffffffff8516815283602082015260606040820152816060820152818360808301376000818301608090810191909152601f9092017fffffffffffffffffffffffffffffffffffffffffffffffffffffffffffffffe01601019392505050565b600060208083528351808285015260005b8181101561025d57858101830151858201604001528201610241565b5060006040828601015260407fffffffffffffffffffffffffffffffffffffffffffffffffffffffffffffffe0601f830116850101925050509291505056fea2646970667358221220fbba711ba387eb433fda4804ab202a6b0c86146891fbccdd1bca32783dd76b1664736f6c63430008120033",
        "nonce": "0x32",
        "accessList": []
      },
      "additionalContracts": [],
      "isFixedGasLimit": false
    },
    {
      "hash": "0x994a00ffac2124a72f236ea02f35d2e6151e34ec528cad794c1b9eb527d499b9",
      "transactionType": "CALL",
      "contractName": "MetaBoard",
      "contractAddress": "0x1291Be112d480055DaFd8a610b7d1e203891C274",
      "function": "emitMeta(uint256,bytes)",
      "arguments": [
        "1",
        "0xff0a89c674ee7874a50058d08d91c10e82300c86df65672e9ae8c177c083315e8c31454a32031dd93ae34278778b828006f1b6a6fffeff6b7bac94a6d2b3539be793d112e4fb50a2daa824303a152982a2293d15c820350fdbf5e92dd81ade81a658548745af436b8d557554292043a1305ed232c81d46e3f014ef980e5a231848538b6e80e3503ed83ea6133441335e5eeae56a3df0f2c9152fdc9b758a3fcc3eb634b3a3afe5dc90b88d99bac314ee798a778eeffc03100bcdf16b06e3b94592b663608c3d43a273cd419472cc12022439f67699a70b6b43e2f800011bffe5ffb4a3ff2cde02706170706c69636174696f6e2f6a736f6e03676465666c6174650462656e"
      ],
      "transaction": {
        "type": "0x02",
        "from": "0xf39fd6e51aad88f6f4ce6ab8827279cfffb92266",
        "to": "0x1291be112d480055dafd8a610b7d1e203891c274",
        "gas": "0xa686",
        "value": "0x0",
        "data": "0xd284820b000000000000000000000000000000000000000000000000000000000000000100000000000000000000000000000000000000000000000000000000000000400000000000000000000000000000000000000000000000000000000000000105ff0a89c674ee7874a50058d08d91c10e82300c86df65672e9ae8c177c083315e8c31454a32031dd93ae34278778b828006f1b6a6fffeff6b7bac94a6d2b3539be793d112e4fb50a2daa824303a152982a2293d15c820350fdbf5e92dd81ade81a658548745af436b8d557554292043a1305ed232c81d46e3f014ef980e5a231848538b6e80e3503ed83ea6133441335e5eeae56a3df0f2c9152fdc9b758a3fcc3eb634b3a3afe5dc90b88d99bac314ee798a778eeffc03100bcdf16b06e3b94592b663608c3d43a273cd419472cc12022439f67699a70b6b43e2f800011bffe5ffb4a3ff2cde02706170706c69636174696f6e2f6a736f6e03676465666c6174650462656e000000000000000000000000000000000000000000000000000000",
        "nonce": "0x33",
        "accessList": []
      },
      "additionalContracts": [],
      "isFixedGasLimit": false
    }
  ],
  "receipts": [
    {
      "transactionHash": "0xdb78fbc46d4d2fec7d964bce215dd52c760b83917a0f95cddcb782d5328d5527",
      "transactionIndex": "0x0",
      "blockHash": "0x313f24f2fa67189b234a9c443270cf68452a2d10f27eb536341f5523836a42d5",
      "blockNumber": "0x33",
      "from": "0xf39Fd6e51aad88F6F4ce6aB8827279cffFb92266",
      "to": null,
      "cumulativeGasUsed": "0x33002",
      "gasUsed": "0x33002",
      "contractAddress": "0x1291Be112d480055DaFd8a610b7d1e203891C274",
      "logs": [],
      "status": "0x1",
      "logsBloom": "0x00000000000000000000000000000000000000000000000000000000000000000000000000000000000000000000000000000000000000000000000000000000000000000000000000000000000000000000000000000000000000000000000000000000000000000000000000000000000000000000000000000000000000000000000000000000000000000000000000000000000000000000000000000000000000000000000000000000000000000000000000000000000000000000000000000000000000000000000000000000000000000000000000000000000000000000000000000000000000000000000000000000000000000000000000000000",
      "type": "0x2",
      "effectiveGasPrice": "0xb2e22dc4"
    },
    {
      "transactionHash": "0x994a00ffac2124a72f236ea02f35d2e6151e34ec528cad794c1b9eb527d499b9",
      "transactionIndex": "0x0",
      "blockHash": "0xb990c389b714651d7162fade87b97d71d95c3b7cedd80a4b8fd7b14d97a64c0d",
      "blockNumber": "0x34",
      "from": "0xf39Fd6e51aad88F6F4ce6aB8827279cffFb92266",
      "to": "0x1291Be112d480055DaFd8a610b7d1e203891C274",
      "cumulativeGasUsed": "0x7890",
      "gasUsed": "0x7890",
      "contractAddress": null,
      "logs": [
        {
          "address": "0x1291Be112d480055DaFd8a610b7d1e203891C274",
          "topics": [
            "0xbea766d03fa1efd3f81cc8634d08320bc62bb0ed9234ac59bbaafa5893fb6b13"
          ],
          "data": "0x000000000000000000000000f39fd6e51aad88f6f4ce6ab8827279cfffb92266000000000000000000000000000000000000000000000000000000000000000100000000000000000000000000000000000000000000000000000000000000600000000000000000000000000000000000000000000000000000000000000105ff0a89c674ee7874a50058d08d91c10e82300c86df65672e9ae8c177c083315e8c31454a32031dd93ae34278778b828006f1b6a6fffeff6b7bac94a6d2b3539be793d112e4fb50a2daa824303a152982a2293d15c820350fdbf5e92dd81ade81a658548745af436b8d557554292043a1305ed232c81d46e3f014ef980e5a231848538b6e80e3503ed83ea6133441335e5eeae56a3df0f2c9152fdc9b758a3fcc3eb634b3a3afe5dc90b88d99bac314ee798a778eeffc03100bcdf16b06e3b94592b663608c3d43a273cd419472cc12022439f67699a70b6b43e2f800011bffe5ffb4a3ff2cde02706170706c69636174696f6e2f6a736f6e03676465666c6174650462656e000000000000000000000000000000000000000000000000000000",
          "blockHash": "0xb990c389b714651d7162fade87b97d71d95c3b7cedd80a4b8fd7b14d97a64c0d",
          "blockNumber": "0x34",
          "transactionHash": "0x994a00ffac2124a72f236ea02f35d2e6151e34ec528cad794c1b9eb527d499b9",
          "transactionIndex": "0x0",
          "logIndex": "0x0",
          "removed": false
        }
      ],
      "status": "0x1",
      "logsBloom": "0x00000000000000000000000000000000000000000000000000000000000800000000000000000000000000000000000000000000000000000000000000200000000000000000000000040000000000000000000000000000000000000000000000000000000000000000000000000000000000400000000000000000000000000000000000000000000000000000000000000000000000000000000000000000000000000000000000000000000000000000000000000000000000000000000001000000080000000000000000000000000000000000000000000000000000000000000000000000000000000000000000000000000000000000000000000000",
      "type": "0x2",
      "effectiveGasPrice": "0xb2dffbbc"
    }
  ],
  "libraries": [],
  "pending": [],
  "returns": {},
  "timestamp": 1688133680,
  "chain": 31337,
  "multi": false,
  "commit": "b3c014e"
}